:020000040800F2
:10000000D00700209D010008CF220008651F0008CE
:10001000C122000811070008AD28000800000000F8
:10002000000000000000000000000000D3220008D3
:10003000C507000800000000D1220008D5220008F2
:10004000B7010008B7010008B7010008B7010008B0
:10005000B7010008B7010008B7010008B7010008A0
:10006000B7010008B7010008B7010008B701000890
:10007000B7010008B7010008B7010008B701000880
:10008000B7010008B7010008B7010008B701000870
:10009000B7010008B7010008B7010008B701000860
:1000A000B7010008B7010008B7010008B701000850
:1000B000B7010008B7010008B7010008B701000840
:1000C000B7010008B7010008B7010008B701000830
:1000D000B70100085D280008B7010008B701000853
:1000E000C7070008B7010008B7010008B7010008FA
:1000F000B7010008B7010008B7010008B701000800
:10010000B7010008B7010008B7010008B7010008EF
:10011000B7010008B701000871230008B701000803
:10012000B7010008B7010008B7010008B7010008CF
:10013000B7010008B7010008B7010008B7010008BF
:10014000B7010008B7010008B7010008B7010008AF
:1001500015070008B7010008B7010008B70100083B
:10016000B7010008B7010008B7010008B70100088F
:10017000B7010008B7010008B7010008000000003F
:10018000B7010008B7010008DFF80CD000F0AEFAA4
:1001900000480047152A0008D0070020064880477D
:1001A00006480047FEE7FEE7FEE7FEE7FEE7FEE75C
:1001B000FEE7FEE7FEE7FEE7552300088901000899
:1001C0002DE9F05F0546002092469B46884606468C
:1001D000814640241BE0284641464746224600F01F
:1001E000CDF953465A46C01A914110D311461846CC
:1001F000224600F0B4F92D1A67EB01084F4622465B
:100200000120002100F0ABF917EB00094E41201E40
:10021000A4F10104DFDC484631462A464346BDE8E6
:10022000F09F2DE9F04100242546002905DA01243C
:100230000027D0EB070067EB0101002B05DA002750
:10024000D2EB0702012567EB0303FFF7B9FF8646F0
:100250000E4617469C46AC4204D00025D0EB050E56
:1002600065EB010624B10020D2EB000760EB030C24
:10027000704631463A466346BDE8F081D2B201E0AD
:1002800000F8012B491EFBD270470022F6E710B59B
:1002900013460A4604461946FFF7F0FF204610BDF4
:1002A0002DE9FE4F804681EA0300C00F0C46009006
:1002B00021F0004123F00045B8EB0200A94105D22E
:1002C0004046214690461C460B46024623F000401D
:1002D000104304D14046214603B0BDE8F08F270DFE
:1002E000C7F30A00C3F30A510290401A0190402854
:1002F00066DAC3F3130040F4801B0098924620B1E5
:100300000023D2EB030A63EB0B0B01985946C0F1B3
:100310004002504600F023F906460D465046594625
:10032000019A00F03BF910EB08006141002487EAD4
:10033000115284EAE7731A433BD0009A3AB3019A08
:10034000012A4FEA075210DC001B61EB02014FF05B
:10035000004202EA0752CDE90042001C41F580113B
:1003600032462B4600F06FF9B6E7001B61EB020145
:10037000001C41F5801300185B412018A2F50017FE
:1003800047EB030140EAD570B6196D4111E06D08E5
:100390004FEA360645EAC0754FEA0752001B61EB8B
:1003A0000201001C41F5801149084FEA3000001994
:1003B000514132462B4603B0BDE8F04F00F036B94C
:1003C0000098012240000023D0EB020263EBE073AF
:1003D000009821464FEAE074B8EB000061EB04019D
:1003E000E9E783F000435BE781F0004158E72DE93E
:1003F000FE4F81EA030404F0004421F00041009420
:100400004FF0000B23F0004350EA010402D052EAFF
:10041000030404D10020014603B0BDE8F08FC3F30C
:100420000A54C1F30A552C44A4F2F3340194A0FBFE
:100430000254C1F3130141F48011C3F3130343F4D5
:10044000801301FB024400FB034E840A970A44EA2E
:10045000815447EA8357A4FB076802958D0A05FB80
:1004600007854FEA932C04FB0C542705029D4FEAA5
:10047000065847EA1637B5EB08056EEB070C870EF2
:10048000920E47EA811742EA8312A7FB0201B6EBFC
:100490000B0164EB00042B0D43EA0C335E1844EBB4
:1004A0001C50DA465146E7FB0201C5F313044FEA3C
:1004B0000B3343EA14534FEA0432019C43EA060328
:1004C000A4F10C040294009CCDE900B400F0BBF848
:1004D000A2E70EB5C10F80EAE0700844CA07002108
:1004E00040F233438DE80E000A460B4600F0ABF8AD
:1004F00003B000BDC1F30A5210B5C1F3130140F2BD
:10050000FF3341F480119A4201DA002010BD40F21D
:1005100033439A42A2F2334203DC524200F02EF8F7
:1005200010BD904010BD01F0004330B421F00041F7
:1005300050EA010206D00A0DA2F56072C1F3130160
:10054000002A02DC30BC00207047440F44EAC1049A
:10055000C100E01830BC00EBC25000F031B8202AD6
:1005600004DB203A00FA02F1002070479140C2F10A
:10057000200320FA03F3194390407047202A04DB3C
:10058000203A21FA02F00021704721FA02F3D0400C
:10059000C2F120029140084319467047202A06DB29
:1005A000CB17203A41FA02F043EAE07306E041FA41
:1005B00002F3D040C2F1200291400843194670472F
:1005C0000029A8BF7047401C490008BF20F0010067
:1005D000704710B4B0FA80FC00FA0CF050EA010445
:1005E00004BF10BC704749B1CCF1200421FA04F4D7
:1005F00011FA0CF118BF012121430843A3EB0C01B0
:10060000CB1D0106000A002BBEBF002010BC7047A6
:1006100000EBC35010440029A4BF10BC7047401C1D
:10062000490008BF20F0010010BC704710B5002B36
:1006300008DA401C41F1000192185B411A4301D1D4
:1006400020F0010010BD2DE9F04D92469B4611B1FE
:10065000B1FA81F202E0B0FA80F220329046FFF760
:100660007EFF04460F4640EA0A0041EA0B0153466A
:100670005A46084303D120463946BDE8F08D11465D
:1006800053EA010015D0C8F140025046FFF776FF4B
:1006900005460E46504659464246FFF760FF08435E
:1006A00001D0012000E00020054346EAE0762C431B
:1006B00037430A984FEA4453A0EB08004FEAD4248A
:1006C0000A304FF0000244EA47544FEAD72502D5DA
:1006D00000200146D1E7010510196941DDE908450F
:1006E00000196941BDE8F04DA0E70000064C074D38
:1006F00006E0E06840F0010394E8070098471034F2
:10070000AC42F6D3FFF744FD402C0008602C0008F3
:10071000FEE70000014800F037B900006C0300203C
:1007200001681823CAB2103AB2FBF3F2054B6FF31B
:100730000901032A9B5CC36500D9091D8165084630
:1007400070470000202C000810B5014600208B697E
:100750008A6A4FF0C07453B1B3F5005F15D072B11F
:10076000012A0CD0022A0AD0032A09D104E01AB1C6
:10077000012A06D0022A03D1C96AC90100D5012085
:1007800010BDC96AA142FAD010BD002AF7D0012AD3
:10079000F2D0022AF3D0032AF3D010BD30B504689A
:1007A000256825F480252560046863608368402BF4
:1007B000036803D099600068C26030BD9A60006829
:1007C000C16030BD70474FF4005000F053BA0000D4
:1007D0002DE9F0410E462DED048B0446817A4068E8
:1007E0000068406A9FED349B851B9FED358B012986
:1007F00004D0022908D0032927D150E0002D54D07D
:1008000050DC55E0607220E0002D03D005DD4FF094
:10081000010104E04FF0000101E04FF002016172BC
:10082000B04212D0281E00DA6842FFF752FE53ECA5
:10083000192BFFF7DCFD53EC182BFFF7D8FDFFF762
:1008400059FE0146204802F033F82846FFF741FEE2
:100850000F4647EC100B9FED1D1B054653EC112B6B
:1008600051EC100BFFF7C3FD41EC100B53EC192BAF
:1008700084ED060B47EC105B51EC100BFFF7B7FD56
:1008800053EC182BFFF7B3FD41EC100B84ED080B74
:10089000606800684662BDEC048BBDE8F081002D05
:1008A00003D005DD4FF00100ACE74FF00000A9E7F1
:1008B0004FF00200A6E7000094F6065F984C653FF3
:1008C00000000000000059406C020020B5A679C766
:1008D000293A823F70472DE9F0410446876D00F0C8
:1008E000B5FA064694F835000025022806D0802087
:1008F000606584F834500120BDE8F081206801680B
:1009000021F0160101602068416921F080014161F8
:10091000206C08B9A06C20B12068016821F00801A2
:1009200001602068016821F0010101600BE000F026
:100930008DFA801B052806D92020343420622570CA
:1009400003206070D8E720680068C007EFD1343416
:100950003F2094F828108840B8602570012060700E
:100960000020C9E790F83510022903D080214165A5
:1009700001207047052180F835100068016821F0DA
:1009800001010160002070472DE9F84304464FF053
:100990000009CDF8009065484FF41651A56D006828
:1009A000B0FBF1F72E6894F85C10082000FA01F112
:1009B000314210D021680A6852070CD50A6822F02B
:1009C00004020A6094F85C1000FA01F0A860606DFF
:1009D00040F00100606594F85C104FF0010808FADF
:1009E00001F0304208D021684969090604D5A860A1
:1009F000606D40F00200606594F85C10042000FA1D
:100A000001F0304208D021680968890704D5A86040
:100A1000606D40F00400606594F85C10102000FAEE
:100A200001F0304218D021680968090714D5A86080
:100A300020680168490304D50068000308D5A16C4B
:100A400007E00168C90503D4016821F008010160CD
:100A5000216C09B12046884794F85C10202000FAE8
:100A600001F0304231D021680968C9062DD5A8604F
:100A700094F8350005282068016806D0490347D559
:100A8000006800031DD4616C1CE021F016010160B8
:100A90002068416921F080014161206C08B9A06C97
:100AA00020B12068016821F00801016094F85C1011
:100AB0003F208840A86084F8349084F83580216D08
:100AC0001FE0E16B09B120468847606D00282BD0FC
:100AD000606DC00714D0052084F8350020680168D7
:100AE00021F0010101600098401C0090B84203D839
:100AF00020680068C007F6D184F8349084F8358007
:100B0000E16C002910D001B02046BDE8F043084751
:100B10000168C905D5D4016821F01001016084F88D
:100B2000349084F83580CCE7BDE8F88304010020D8
:100B30002DE9F041044600F089F906465CB1002534
:100B400084F83450022084F835002068016821F0D0
:100B5000010101600DE00120BDE8F08100F076F9AF
:100B6000801B052805D920206065032084F8350006
:100B7000F2E720680068C007F0D1226811682048B9
:100B80000140D4E901031843D4E903363343184341
:100B900063691843A3691843E3691843236A184338
:100BA0000843616A042903D1D4E90B1319430843AC
:100BB000106020684069666A20F0070130460E43E5
:100BC000012704280CD1A06A0643E06A40B1204600
:100BD000FFF7BAFD20B14020606584F83570BAE7B0
:100BE000206846612046FFF79BFD94F85C203F217A
:100BF00091408160656584F835700020ACE70000A5
:100C00003F8010F02DE9F0410446866D90F83400E5
:100C1000002501280DD0012084F8340094F83570A7
:100C20000020012F07D084F8340002252846BDE8B3
:100C3000F0810220FBE7022784F8357060652046CA
:100C4000FFF7ACFD94F85C103F208840B06020684E
:100C5000016841F016010160206C20B12068016834
:100C600041F0080101602068016841F00101016064
:100C7000DCE77047044910B50A68024202D00860F8
:100C8000FFF7F7FF10BD0000143C01402DE9F84FBD
:100C900000224FF0010803254FF00F0E0B6808FAF1
:100CA00002F42340A34271D14E68012E05D0022EDA
:100CB00003D0112E01D0122E12D186684FEA420CB9
:100CC00005FA0CF7BE43CF6807FA0CF73743876085
:100CD0004668A6430C79C4F300149440344344603E
:100CE000C668570005FA07FC8C6826EA0C06BC406B
:100CF0003443C4604C68022C01D0122C15D14FEA49
:100D0000D20400EB8404A346D4F820904FEA427446
:100D10004FEAD46A0EFA0AF629EA06090E6906FABB
:100D20000AF646EA0906CBF8206004680E7924EA40
:100D30000C0406F0030606FA07F646EA0406066007
:100D40004C68E40065D5364C266846F4804626603B
:100D5000246822F0030604F480440094314C3444A7
:100D6000A44624689607370F0EFA07F6B4432E4EB2
:100D7000B04201D1002624E02C4EB04201D1012620
:100D80001FE02B4EB04202D102261AE041E0294E6C
:100D9000B04201D1032614E0274EB04201D104260F
:100DA0000FE0264EB04201D105260AE0244EB042A3
:100DB00001D1062605E0234EB04201D1072600E00E
:100DC000082606FA07F62643CCF800601E4E346863
:100DD0004F689C43FF0300D51C4334601A4E361DF8
:100DE00034684F689C43BF0300D51C433460164EE3
:100DF000083634684F689C43FF0200D51C433460BA
:100E0000114E0C3634684F689C43BF0200D51C431A
:100E10003460521C102AFFF441AFBDE8F88F000087
:100E200044380240083801400000024000040240FB
:100E300000080240000C0240001002400014024072
:100E400000180240001C0240003C0140014880683C
:100E500070470000F80000200248816802781144C1
:100E600081607047F80000200B4810B5016841F41C
:100E700000710160016841F480610160016841F422
:100E800080710160032000F06FF8002000F006F888
:100E900000F024F8002010BD003C024070B50D4D5C
:100EA00004464FF47A712878B1FBF0F00A490968DA
:100EB000B1FBF0F000F002FB48B9102C07D2002281
:100EC0002146501E00F030F800206C6070BD0120FB
:100ED00070BD0000F8000020040100200A4808B599
:100EE000016841F480410160006800F48040009096
:100EF0000548001F016841F080510160006800F062
:100F00008050009008BD00004438024000280ADBF1
:100F100000F01F020121914040094FF0E02202EB56
:100F20008000C0F800117047F0B40E4B1B680C46EF
:100F3000C3F30223C3F10705042D00D90425191DAD
:100F4000072901D2002300E0DB1E012606FA05F185
:100F5000491E214099409E40761E16403143F0BC08
:100F600001F012BD0CED00E0064900F00702086830
:100F70004FF6FF03184040EA0220034A104308607E
:100F8000704700000CED00E00000FA052DE9F04785
:100F90000E46050065D0DFF81481D8F80000F7B2DE
:100FA00000F00F00B04207D288F80070D8F80000B7
:100FB00000F00F00B04254D128683D4C810712D593
:100FC000400703D5206840F4E050206028780007EF
:100FD00003D5206840F4604020602068A96820F0B4
:100FE000F000084320602878C0072DD03049686899
:100FF0000839012812D0022813D0032811D009681B
:10100000890700292DDA216821F0030101432160BD
:10101000FFF71CFF814641F2883A0EE00968890318
:10102000EFE709688901ECE7FFF710FFA0EB090182
:10103000514502D90320BDE8F0872068696800F0B7
:101040000C00B0EB810FEFD1D8F80010404601F052
:101050000F01B14207D90770006800F00F00B042DD
:1010600001D00120E7E72878400705D52068E96826
:1010700020F4E050084320602878000706D5206857
:10108000296920F4604040EAC100206000F038F88F
:101090002168084AC1F30311515CC8400649086041
:1010A00006480068FFF7FAFE0020C4E7003C024053
:1010B00008380240282C000804010020FC00002011
:1010C0000448054900680968044AC1F38221515C5B
:1010D000C84070470401002008380240382C00083E
:1010E0000448054900680968044AC1F34231515C6B
:1010F000C84070470401002008380240382C00081E
:10110000154810B5006810F00C02144813D04110B7
:10111000042A0FD0082A0ED10F4C241F22682368FE
:1011200002F03F025B0207D52068C0F38810A0FBE5
:10113000010106E0084610BD2168C1F38811A1FB3A
:1011400000010023FFF73CF82168C1F30141491C6D
:101150004900B0FBF1F010BD083802400024F40053
:101160002DE9F84F040076D02078DFF838A3CE4D73
:10117000C00749D0DAF800105046C1F381010129B7
:1011800008D00068C0F3810002280AD1281D006839
:10119000400206D52868800336D560680028E2D072
:1011A00032E06068B0F5803F10D0B0F5A02F28681D
:1011B00010D020F480302860286820F48020286037
:1011C0006068A0B1FFF742FE06460CE0286840F4D4
:1011D0008030F4E740F480202860F7E7FFF736FE20
:1011E000801B642873D828688003F7D50CE0FFF7CC
:1011F0002DFE064605E000BFFFF728FE801B642891
:10120000F0D828688003F7D42078DFF8A082800720
:101210004FF000093ED5DAF80010504611F00C0FDF
:1012200009D00068C0F3810002280BD19D48001F3F
:101230000068400206D42868800715D5E0680128B8
:1012400009D111E0E068B8B10120C8F80000FFF74B
:10125000FDFD064605E020E1FFF7F8FD801B0228B2
:10126000C0D828688007F7D52868216920F0F800E1
:1012700040EAC10028600DE0C8F80090FFF7E6FDE5
:10128000064604E0FFF7E2FD801B0228AAD8286882
:101290008007F7D42078000722D5824E8448616900
:1012A0006C3671B101210160FFF7D0FD074604E003
:1012B000FFF7CCFDC01B022809D830688007F7D59E
:1012C0000EE0C0F80090FFF7C1FD074605E083E09F
:1012D000FFF7BCFDC01B02287ED830688007F7D41A
:1012E0002078400769D5DFF8BCB100270BF1380B37
:1012F000DBF80000C0000BD4DBF8001041F0805197
:10130000CBF80010DBF80000012700F080500090BF
:10131000684E3068C00510D4306840F4807030608A
:10132000FFF794FD009005E0FFF790FD0099401A4B
:10133000022851D83068C005F6D55A4EA0686836E4
:1013400001280FD00528306810D020F0010030604F
:10135000306820F004003060A068B8B1FFF776FD77
:1013600000900FE0306840F00100F4E740F0040026
:101370003060F7E7FFF76AFD0099411A41F28830C3
:10138000814266D830688007F4D50EE0FFF75EFD35
:10139000009007E0FFF75AFD0099411A41F28830AA
:1013A000814256D830688007F4D4012F05D1DBF88C
:1013B000001021F08051CBF80010A069C8B3DAF812
:1013C00000205146C2F38102022A49D00228484631
:1013D00007D0C8F8600000E03BE0FFF737FD0446A7
:1013E0003AE04746C8F86000FFF730FD064604E0E3
:1013F000FFF72CFD801B02282BD828688001F7D42A
:10140000D4E907010843A16A2B4A490802EB0141CC
:10141000626A41EA8211084394F82C1040EA0161A3
:101420002048001F016001203866FFF70FFD0446C9
:1014300005E034E0FFF70AFD001B022809D8286800
:101440008001F7D52BE000BFFFF700FD001B02284D
:1014500002D90320BDE8F88F28688001F4D41EE08B
:101460000128F7D00868E26900F48001914214D1A4
:10147000226A00F03F0191420FD147F6C071626AC3
:101480000140914209D1A26A00F44031914204D155
:10149000E16A00F07060884201D00120DAE70020A4
:1014A000D8E70000083802400038024000004742F8
:1014B000800E4742007000400000FFFF10B5401E44
:1014C000B0F1807F01D3012010BD4FF0E0246061B6
:1014D0000F21601701F058FA0020A0610720206159
:1014E000002010BD7047704770B590F83C20012A6D
:1014F00031D0012480F83C40022280F83D2003686E
:101500005A689D6822F070060A6832435A60134B8D
:1015100002689A4214D0B2F1804F11D0104B9A4217
:101520000ED0104B9A420BD00F4B9A4208D00F4B63
:101530009A4205D00E4B9A4202D00E4B9A4204D1E9
:10154000496825F08003194391603C3044700021C4
:101550000170084670BD022070BD0000000001400F
:101560000004004000080040000C0040000401405E
:10157000004001400018004010B5040003D094F86A
:101580003D0010B107E0012010BD002084F83C00B0
:10159000204600F00DF8022084F83D00211D20684F
:1015A00000F0ECFE012084F83D00002010BD00009A
:1015B00008B500680B49884212D10B48016841F018
:1015C000100101600068002200F01000009001216D
:1015D0003620FFF7A9FCBDE808403620FFF796BC8F
:1015E00008BD000000100040403802400168CA6891
:1015F00042F00102CA600068816801F00701062913
:1016000003D0016841F001010160002070472DE91D
:10161000F0410D46040003D094F83D0018B108E0F5
:101620000120BDE8F081002084F83C00204600F055
:101630003BF8022084F83D002068816844F20702EC
:1016400091438160211D206800F098FE2268906817
:101650009169166A2B68AF69034340F203308143F6
:1016600041EA0721A868EF6908434FF6FC41884327
:10167000E96840EA0720014328692F6A000140EA2F
:101680000730084369686D6926F0AA0646EA051521
:10169000294393602268906120680162012084F8E8
:1016A0003D000020BDE7000070B586B0044614215F
:1016B0006846FEF7EAFD384923680024364A1039A7
:1016C00002253648B3F1804F1BD04FEAF046B342B3
:1016D00046D1106840F004001060106800F004006B
:1016E0000590086840F0080008600868694600F046
:1016F000080005904FF440500090CDE9015428486F
:1017000046E0136843F001031360126802F001021F
:1017100005920A6842F001020A600A6802F00102BA
:1017200005920A6842F002020A600968012601F087
:101730000201059120210091CDE90154CDE9034634
:101740006946FFF7A3FA08200090CDE90154CDE9DE
:1017500003461448694600BFFFF798FA06B070BD0B
:10176000114EB342FAD1136843F0080313601268B4
:1017700002F0080205920A6842F001020A60096854
:1017800001F00101059103210091CDE90154694661
:10179000CDE90345E0E70000403802400000024088
:1017A000000C024000040240000C004010B504464A
:1017B000006891B1042904D00122002100F042FE0A
:1017C000206801225FF0040100F03CFE20680168FF
:1017D00041F001010160002010BD01220021F3E76A
:1017E000704770B50446006801694FF00005C943B1
:1017F000890715D4C168C943890711D4E91E01615D
:1018000001202077206880698007204602D0FFF7FA
:10181000E7FF04E000F098F8204600F096F82577FE
:1018200020680169C943490717D4C168C9434907FA
:1018300013D46FF0040101610220207720688069D1
:1018400010F4407F204602D0FFF7CAFF04E000F00A
:101850007BF8204600F079F8257720680169C943B4
:10186000090716D4C168C943090712D46FF00801EB
:101870000161042020772068C0698007204602D0DB
:10188000FFF7AEFF04E000F05FF8204600F05DF8DF
:10189000257720680169C943C90617D4C168C943BF
:1018A000C90613D46FF01001016108202077206869
:1018B000C06910F4407F204602D0FFF791FF04E09A
:1018C00000F042F8204600F040F8257720680169D2
:1018D000C943C90708D1C168C943C90704D1891ED2
:1018E0000161204600F032F820680169C943090609
:1018F00009D4C168C943090605D46FF080010161AC
:101900002046FFF7EFFD20680169C943490609D465
:10191000C168C943490605D46FF040010161204602
:1019200000F0D0F820680169C94389060BD4C1686A
:10193000C943890607D46FF0200101612046BDE844
:101940007040FFF7D0BD70BD704770472DE9F04182
:10195000554E07462DED048B06F1200090EC040B4C
:1019600053EC102B51EC110BFEF73BFDFEF7DBFDAA
:101970004E4C09EE100A04F1200090EC040B53ECDD
:10198000102B51EC110BFEF72CFDFEF7CCFD484D52
:1019900008EE900A05F1200090EC040B53EC102B9C
:1019A00051EC110BFEF71DFDFEF7BDFD08EE100A10
:1019B00040493868884211D147F6FF7739463046AA
:1019C000FEF706FF39462046FEF702FF3946284655
:1019D000FEF7FEFE38480168491C0160BDEEC90AE9
:1019E00010EE100A002800DA4042032812DD2E48CB
:1019F000B0EE490A383001F0A3F8D6ED0D0A30EE0A
:101A0000200A86ED0D0A01F0BBF801463063264836
:101A100000F057FCBDEEE80A10EE100A002800DACC
:101A2000404203281BDD2148B0EE680A383001F03F
:101A300087F8D4ED0D0A214930EE200A10EE100A85
:101A400084ED0D0A884203DD9FED1D0A84ED0D0A29
:101A500001F096F801462063144800F032FCBDEE18
:101A6000C80A10EE100A002800DA4042032816DDEA
:101A70000F48B0EE480A383001F062F8D5ED0D0A93
:101A800030EE200A85ED0D0A01F07AF82863014650
:101A9000BDEC048BBDE8F041054800F012BCBDEC84
:101AA000048BBDE8F08100000800002058000020F1
:101AB000A80000200010004000000020000010439B
:101AC00000001043704710B504460068416994F85F
:101AD0003920C1F3C011212A0BD151B1416921F044
:101AE00080014161206B08B1FEF7F5FE204600F051
:101AF0007BFD2068416994F83A20C1F38011222AC5
:101B00000BD151B1416921F040014161606B08B1D5
:101B1000FEF7E1FE204600F059FD002010BD7047A1
:101B200070B5026804461068D168536910F00F0F51
:101B300053D003F0010501F490762E435FD0C20725
:101B400005D0CA0503D5E26B42F00102E263420709
:101B500005D5DA0703D0E26B42F00202E2638207A6
:101B600005D5DA0703D0E26B42F00402E263020714
:101B700007D501F020022A4303D0E26B42F00802AD
:101B8000E263E26B002A34D0800604D5880602D5D1
:101B9000204600F032FD20684069E16BC0F3801000
:101BA00001F008010143204624D000F00FFD206819
:101BB000416949061AD5416921F040014161606BD4
:101BC000A0B11B490165606BFEF7CCFE002810D068
:101BD000606B016DBDE87040084783060FD58B062A
:101BE0000DD52046BDE8704000F007BD2046FFF748
:101BF00096FF70BDFFF793FF0020E06370BD030602
:101C000006D50B0604D52046BDE8704000F0C2BDE5
:101C10004006F3D54806F1D5D168204621F04001B1
:101C2000D160202184F8391000F09BF970BD0000CC
:101C30002D25000870B5040004D094F83900002563
:101C400010B106E0012070BD84F83850204600F045
:101C500023F8242084F839002068C16821F4005159
:101C6000C160204600F014FD2068016921F4904114
:101C700001612068416921F02A0141612068C16841
:101C800041F40051C160E563202084F8390084F8F4
:101C90003A00002070BD00002DE9F04387B00646F1
:101CA00014216846FEF7F1FA4F494E4A35684E480E
:101CB0001439022301240327DFF830C14FF0000953
:101CC0004FF0070895423AD102684D4642F01002A3
:101CD0000260006800F010000590086840F0010004
:101CE00008600868694600F00100059078028DE8F8
:101CF00099016046FEF7CAFF3E4C3D4820604FF018
:101D00000060C4E901054014C4E90350656138046A
:101D1000A561C4E9075020466562FEF709FF08B1D6
:101D2000FEF7D8FD7463002211462520A663FFF755
:101D3000FBF82520FFF7EAF807B0BDE8F0832A4A50
:101D40002D4E121FB54215D1106840F400301060BE
:101D5000106800F400300590086840F00100086049
:101D60000868694600F0010005900C208DE8990193
:101D7000604618E0214EB54218D1106840F480202A
:101D80001060106800F480200590086840F00200A0
:101D900008600868694600F0020005904FF4406052
:101DA0008DE899011648FEF771FFC5E7154A95427F
:101DB000C2D1026842F020020260006800F02000F8
:101DC0000590086840F0040008600868694600F063
:101DD00004000590C0208DE89900082004900A486E
:101DE000E1E70000001001404438024000000240DA
:101DF000886402406C03002000440040004800401A
:101E0000000402400014014000080240F8B50446F6
:101E100090F83A0020283CD1C1B3BAB394F8380006
:101E2000012836D0012084F83800A162A28500255F
:101E3000E563222084F83A00636B1748D863636B2C
:101E400016481864636B1648D864606B13460565C2
:101E500008462168666B0246091D3046FEF7D2FE31
:101E6000206801684168009184F83850C16841F4E5
:101E70008071C1602068416941F0010141612068C1
:101E8000416941F0400141610020F8BDFFE70120B8
:101E9000FBE70220F9E7000087250008C3250008BA
:101EA0003D250008704770472DE9F843044690F837
:101EB00039001F4616460D46202850D1B5B1AEB1A7
:101EC00094F8380001284AD0012084F838004FF0F7
:101ED0000008C4F83C80212084F83900FEF7B6FFE2
:101EE000A6848146E68484F8388026E00120BDE897
:101EF000F883E08C401EE084A0684B46B0F5805F1C
:101F00004FF000024FF080012046009703D000F010
:101F100072FCE8B90DE000F06EFCC8B928882168B1
:101F2000C0F308004860206908B16D1C05E0AD1CD5
:101F300003E0216815F8010B4860E08C0028D8D137
:101F40004B46002240212046009700F054FC08B187
:101F50000320CCE7202084F839000020C7E70220C6
:101F6000C5E77047FEE70000094808B5016841F47D
:101F7000800101600068002200F48000009011469A
:101F80004420FEF7D1FFBDE808404420FEF7BEBF65
:101F90003038024010B586B014216846FEF775F956
:101FA00026480021026842F010020260026802F036
:101FB00010020592026842F080020260026802F09C
:101FC00080020592026842F001020260026802F09B
:101FD00001020592026842F002020260026802F009
:101FE00002020592026842F008020260026802F0F2
:101FF00008020592026842F00402026000680124AF
:1020000000F00400059010208DE8130069460C488C
:10201000FEF73CFE600300900A48CDE901046946E2
:102020000948FEF733FE002211462820FEF77CFF08
:102030002820FEF76BFF06B010BD000030380240CC
:1020400000100240000011100004024010B58CB0D6
:1020500024216846FEF719F90024164809944FF028
:1020600080410A9401600321C0E901144FF6FF7218
:10207000C0E903248022826100910120CDE9014062
:102080000F21CDE90341CDE90540CDE9074169467E
:102090000848FFF7BCFA08B1FEF71CFC099409A92F
:1020A00004480A94FFF720FA002801D0FEF712FC3A
:1020B0000CB010BD0801002010B58CB0242168467A
:1020C000FEF7E3F800241748099415490A940160C3
:1020D0000321C0E901144FF6FF72C0E903248022F6
:1020E000826100910120CDE901400F21CDE903413A
:1020F000CDE90540CDE9074169460A48FFF787FA6F
:1021000008B1FEF7E7FB099409A906480A94FFF70E
:10211000EBF9002801D0FEF7DDFB0CB010BD00008C
:10212000000800404801002010B58CB0242168460A
:10213000FEF7ABF800241748099415490A9401608A
:102140000321C0E901144FF6FF72C0E90324802285
:10215000826100910120CDE901400F21CDE90341C9
:10216000CDE90540CDE9074169460A48FFF74FFA36
:1021700008B1FEF7AFFB099409A906480A94FFF7D6
:10218000B3F9002801D0FEF7A5FB0CB010BD00008C
:10219000000C0040880100201CB500240F4800946A
:1021A0000D490194016040F2CF21C0E9011440F2D1
:1021B000E731C16080218161FFF7DEF908B1FEF7E8
:1021C00089FB0094694605480194FFF78DF90028C2
:1021D00001D0FEF77FFB1CBD00100040C8010020AD
:1021E0000C4810B50A4901604FF4E131416000210B
:1021F00081600C22C160C0E904128161C161FFF7F6
:1022000019FD002803D0BDE81040FEF763BB10BDE8
:10221000001001406C0200200C4810B50A49016012
:102220004FF4E1314160002181600C22C160C0E9BE
:1022300004128161C161FFF7FDFC002803D0BDE8F5
:102240001040FEF747BB10BD00440040AC02002028
:102250000C4810B50A4901604FF4E131416000219A
:1022600081600C22C160C0E904128161C161FFF785
:10227000E1FC002803D0BDE81040FEF72BBB10BDE9
:1022800000480040EC0200200C4810B50A490160EB
:102290004FF4E1314160002181600C22C160C0E94E
:1022A00004128161C161FFF7C5FC002803D0BDE8BD
:1022B0001040FEF70FBB10BD001401402C0300209E
:1022C000FEE7837A0A460068194600F039BB70477A
:1022D00070477047FEF7C0BD30B593B030216846F7
:1022E000FDF7D3FF14210CA8FDF7CFFF17480025F9
:1022F000016841F080510160006800F08050119049
:102300001348016841F4804101600068022400F430
:102310008040119001200090000401908001CDE9DF
:10232000064008AA0420482113C20B906846FEF715
:1023300017FF0CA90F2031C1E0020F90109002216D
:102340000CA8FEF723FE13B030BD00004038024059
:10235000007000400548016841F4700101600349C4
:102360004FF00060803908607047000088ED00E0A1
:102370000148FFF736BA0000C8010020F0B5026836
:10238000254C264D264E274F274B4FF0804CA04220
:1023900009D0604507D0A84205D0B04203D0B8426A
:1023A00001D0984204D122F0700E4A6842EA0E022F
:1023B000A0421BD0604519D0A84217D0B04215D01A
:1023C000B84213D0984211D0184DA8420ED0184DE3
:1023D000A8420BD0174DA84208D0174DA84205D0EF
:1023E000164DA84202D0164DA84203D122F44075E2
:1023F000CA682A434D6922F080022A4302608A6833
:10240000C2620A688262A04201D0984201D1096981
:10241000016301214161F0BD000001400004004062
:1024200000080040000C0040000401400040014052
:10243000004401400048014000180040001C0040DA
:102440000020004010B501F01F030121046A9940EB
:102450008C430462016A9A401143016210BD00007E
:1024600070B50C4605462B4A02230021FDF7D9FE24
:10247000294E1046194632460023FDF7D2FE207041
:10248000B5FBF6F006FB10512448B1FBF0F161708A
:10249000B5FBF0F100FB11512148B1FBF0F1A17047
:1024A000B5FBF0F100FB11511E48B1FBF0F1E170FA
:1024B000B5FBF0F100FB11511B48B1FBF0F12171AC
:1024C000B5FBF0F100FB115142F21070B1FBF0F1DD
:1024D0006171B5FBF0F100FB11514FF47A70B1FB63
:1024E000F0F1A171B5FBF0F100FB11516420B1FBDB
:1024F000F0F1E171B5FBF0F100FB11510A20B1FBE5
:10250000F0F12172B5FBF0F100FB115060723A203E
:10251000A07270BD00E40B5400CA9A3B00E1F505BF
:102520008096980040420F00A086010010B5806B95
:102530000021C185C184FFF7F2FA10BD70B5846B2C
:102540002068406994F83910C0F3C0100025212993
:1025500004D118B1E584204600F046F820684069AF
:1025600094F83A10C0F38010222904D118B1E585FF
:10257000204600F02BF8E06B40F01000E0632046AE
:10258000FFF7CDFA70BD10B50146806B0968096888
:10259000C90513D40021C1850168CA6822F480727C
:1025A000CA6001684A6922F001024A6101684A6909
:1025B00022F040024A61202180F83A10FFF772FCB5
:1025C00010BD10B5806BFFF76EFC10BD0168CA68C6
:1025D00022F49072CA6001684A6922F001024A61DD
:1025E000202180F83A1070470168CA6822F0C002C2
:1025F000CA60202180F83910704710B590F83A1061
:10260000222901D0022010BD8168B1F5805F11D070
:102610000169002901681FD0496801F07F03816AC0
:102620004A1C82620B70C18D491E0904090CC185C8
:1026300018D02BE00269816A002A0268526805D02E
:10264000D2B20A80816A491C8162ECE7C2F30802B7
:102650000A80816A891CF7E74A68816A4B1C836299
:102660000A70E0E70168CA6822F02002CA600168C7
:10267000CA6822F48072CA6001684A6922F00102C5
:102680004A61202180F83A10FFF70CFC002010BDB1
:102690002DE9F041044600680169E26821F44051E7
:1026A000114301612169A068E2690843616911432E
:1026B00022680843D16849F20C6399430143D16011
:1026C00020684169A26921F4407111434161E269C6
:1026D000192664253227B2F5004F2C482C49226870
:1026E0004FF000080CD08A4201D0824230D1FEF770
:1026F000F7FC01466068830F8200A1FB06012EE013
:102700008A4201D0824202D1FEF7EAFC01E0FEF7E4
:10271000D7FC61684A18A0FB060148EB0803FDF7E7
:102720004FFDB0FBF5F213016FF018014A4300EBC7
:10273000820007EBC000B0FBF5F000F0F80103EBFE
:10274000410100F00700084421688860BDE8F0817D
:10275000FEF7B6FC61688B0F8A00A0FB0601FDF74F
:102760002FFD0146B0FBF5F06FF01802424301EB7C
:10277000820107EB0111B1FBF5F101F0F00202EB70
:10278000001001F00F010844DEE7000000140140D2
:102790000010014090F83910212901D00220704723
:1027A0008168B1F5805F016A0BD04A1C0262026841
:1027B00009785160C18C491E0904090CC1840ED0EE
:1027C00017E009880268C1F3080151600169002916
:1027D000016A02D0491C0162ECE7891CFBE7016831
:1027E000CA6822F08002CA600068C16841F04001F6
:1027F000C160002070472DE9F041984617460E460B
:102800000446069D1DE0681C1BD02DB1FEF71EFB83
:10281000A0EB0800A84214D92068C16821F4D07147
:10282000C1602068416921F001014161202084F8E4
:10283000390084F83A00002084F838000320BDE80D
:10284000F0812068006836EA000004D00020B84219
:10285000D9D00020F3E70120F9E700000F4808B5C0
:1028600000680168C1F3001179B101684068009007
:102870000A48FFF728F90A48006840680949C0F18A
:10288000640008700849012008700448FFF748F9FF
:10289000BDE808400148FFF743B900006C02002082
:1028A0006C0300200400002005000020FEE700006B
:1028B0002DE9F0434FF000048BB00A008146254615
:1028C00026464FF4FA6708D002A91046FFF7C8FD64
:1028D0000A2202A80DF1140810E030208DF8000043
:1028E0003A208DF804003B46012269464846FFF72E
:1028F000DBFA3B46012201A91CE00EB9015D29B1BA
:10290000015D0126303108F805106D1C641C9442ED
:10291000F3DB002408E000BF08EB04013B46012282
:102920004846FFF7C1FA641CAC42F5DB3B46012286
:102930000DF112014846FFF7B7FA0BB0BDE8F0837E
:102940007CB50FA50446D5E90035CDE90035100A60
:102950008DF804008DF800108DF8052006216846DA
:1029600000F031F8010A8DF807108DF806004FF4D9
:10297000FA63082269462046FFF796FA7CBD0000FC
:1029800000060040000000000907090E002801DBD6
:10299000034A02E0034A00F00F0081547047000030
:1029A00000E400E014ED00E002E008C8121F08C1D6
:1029B000002AFAD170477047002001E001C1121FC0
:1029C000002AFBD1704730B503464FF6FF704AF23C
:1029D000010461B91A7850400022C5074FEA50003F
:1029E00000D06040521CD2B2082AF6D35B1C0A0009
:1029F000A1F1010189B2EDD130BD0000011D81ECD2
:102A0000030A9FED030A80ED040A80ED050A704772
:102A1000000000002DED048BFEF726FAFFF75CFCAA
:102A2000FFF7B8FAFFF7A0FAFFF7DAFBFFF744FB6E
:102A3000FFF70CFBFFF7B0FBFFF776FBFFF7ECFBB4
:102A4000FFF706FCFFF720FC30480068C16841F042
:102A50001001C16064222E492C48FFF7D7F92D4898
:102A600047F6FF74416809684C6240683C21FEF7F4
:102A70009DFE294D6868006844623C216868FEF745
:102A800095FE2648416809684C6240683C21FEF783
:102A90008DFE2348FEF7AAFD9FED228ADFED228AF4
:102AA0009FED229A1B48B0EE481AF0EE680AB0EE8D
:102AB000490A3830FFF7A2FFB0EE481AF0EE680A74
:102AC000B0EE490A05F13800FFF798FF1348B0EE61
:102AD000481AF0EE680AB0EE490A3830FFF78EFF68
:102AE000134C9FED148B154F002620780028FCD046
:102AF000267085ED0A8B39780548FDF7C6FB642200
:102B000003490248FFF782F9EFE700006C0200205A
:102B1000080200200800002058000020A800002023
:102B2000C801002000000000CDCCCC3D9A99993E10
:102B300005000020FFFFFFFFFFFF2C4004000020E6
:102B400090ED051AF0EE400AD0ED041A31EE201A8D
:102B5000B0EE002A30EEE10A01EEC21A90ED012A31
:102B600022EE000A90ED022A02EE200A90ED032ADE
:102B7000C0ED051AC0ED040A02EE010A704700001C
:102B8000FDEEC00A10EE900A002800DA404200EE86
:102B9000900ADFED1C3A9FED1C3AF8EEE00ADFEDFB
:102BA0001B2A9FED1B1A9FED1B2ADFED1B1AB5EEAA
:102BB000C00AF1EE10FA01DB012101E04FF0FF3114
:102BC00010EE900A154A904204DC30EEC30AC0EEC3
:102BD000230A10E010EE900A104AD2431044B0F5D8
:102BE000000F04D230EEC10AC0EE220A03E030EE3C
:102BF000E10AC0EE020ABDEEE00A10EE100A4843F8
:102C000070470000643BDF3E5C8FEAC031082C3E19
:102C1000F4FD4B42508D573FAEC7CD4200004843B4
:102C2000000610160006101600000000000000004C
:102C30000102030406070809000000000102030462
:102C4000602C00080000002008010000A8290008EE
:102C5000682D000808010020C8060000B8290008F7
:102C60000000000000000000AC020020080100206D
:102C70000000010000000000000000000000000053
:102C80000000000000000000000000000000000044
:102C90000000000000000000000000000000000034
:102CA0000000000000000000000000000000000024
:102CB0000000000000000000EC020020480100209D
:102CC0000000020000000000000000000000000002
:102CD00000000000000000000000000000000000F4
:102CE00000000000000000000000000000000000E4
:102CF00000000000000000000000000000000000D4
:102D000000000000000000002C03002088010020CB
:102D100000000300000000000000000000000000B0
:102D200000000000000000000000000000000000A3
:102D30000000000000000000000000000000000093
:102D40000000000000000000000000000000000083
:102D50000000000000000000010000001000000062
:082D6000000000000024F40053
:040000050800018965
:00000001FF
